:020000040800F2
:1000000000500020AD1300085112000859120008DA
:100010006112000869120008711200080000000057
:10002000000000000000000000000000791200083D
:100030008512000800000000911200089D120008BF
:10004000F5130008F5130008F5130008F513000870
:10005000F5130008F5130008F5130008F513000860
:10006000F5130008F5130008F5130008F513000850
:10007000F5130008F5130008F5130008F513000840
:10008000F5130008F5130008F5130008F513000830
:10009000F5130008F5130008F5130008F513000820
:1000A000F5130008F5130008F5130008F513000810
:1000B000A9120008F5130008F5130008BD12000886
:1000C000F5130008D1120008F5130008E512000826
:1000D000F91200080D13000821130008F513000899
:1000E000F5130008F5130008F513000800000000E0
:1000F0000000000000000000000000000000000000
:0C01000000000000000000005FF808F1A3
:10010C0010B5054C237833B9044B13B10448AFF345
:10011C0000800123237010BD60000020000000004F
:10012C00D470000808B5034B1BB103490348AFF367
:10013C00008008BD0000000064000020D47000089E
:10014C0080B582B000AF0346FB7197F90730032BE3
:10015C0022D801A252F823F0750100088101000891
:10016C008D010008990100080D4805F0FFFF00F013
:10017C00B5F812E00B4801F037FF00F019F80CE06D
:10018C00094804F0E3FC00F03BF806E0074805F0F2
:10019C00EDFF00F0A3F800E000BF0837BD4680BDBE
:1001AC00D0000020200100207C010020D80100207C
:1001BC0080B500AF0F4B104A9A650E4B0022DA65E2
:1001CC000C4B4FF480425A660A4B00229A66094B3C
:1001DC000022DA66074B00221A67064B00225A6788
:1001EC00064801F0BDFD0346002B01D000F02EFDAA
:1001FC0000BF80BDCC000020A086010020010020A3
:10020C0080B500AF1C4B0022C3F8B8201A4B00225B
:10021C00C3F8BC20184BB3F8AA301A46164BC3F8D7
:10022C00C020154BB3F8AC301A46134BC3F8C4209E
:10023C00114B4FF40072C3F8C8200F4B0022C3F8C7
:10024C00CC200D4B0022C3F8D0200B4B0022C3F85E
:10025C00D420094B0022C3F8D820074B0A22C3F83C
:10026C00DC20064804F0EEFB0346002B01D000F026
:10027C00EDFC00BF80BD00BFCC0000207C01002045
:10028C0080B582B000AF134BB3F84C301A46114B0B
:10029C009A60104B0022DA600E4B00221A610D4B53
:1002AC0000225A610B4B0C229A610A4B0022DA6134
:1002BC00084B00221A62084805F008FF0346FB7140
:1002CC00FB79002B01D000F0C1FC00BF0837BD4604
:1002DC0080BD00BFCC000020D000002080B500AF56
:1002EC00134BD3F85431124AC2F81031104B002280
:1002FC00C3F814210E4B0022C3F818210C4B00221A
:10030C00C3F81C210A4B0C22C3F82021084B0022F5
:10031C00C3F82421064B0022C3F82821054805F018
:10032C00D5FE0346002B01D000F090FC00BF80BD31
:10033C00CC000020D801002080B586B000AF07F1BA
:10034C00080300221A605A609A60DA603B46002269
:10035C001A605A60204B4FF080421A601E4B48F6D0
:10036C009F425A601C4B00229A601B4B0122DA60A0
:10037C00194B00221A61184B00229A61164805F09D
:10038C00B4FA0346002B01D000F060FC4FF400538C
:10039C00BB600023FB6000233B6100237B6107F102
:1003AC00080319460C4805F031FC0346002B01D01C
:1003BC0000F04CFC00233B6000237B603B4619465D
:1003CC00054805F013FE0346002B01D000F03EFC5F
:1003DC0000BF1837BD4680BD8000002080B500AF3F
:1003EC000F4B1B78002B05D0002310220D49002049
:1003FC0000F022F90C4B1B78002B05D000231022A7
:10040C000A49012000F018F9094B1B78002B05D084
:10041C00002310220749022000F00EF900BF80BD16
:10042C007E0000202C0200207C0000203C020020DA
:10043C007D0000204C02002080B582B000AF00236C
:10044C00FB71FFF779FF1F4B1B78002B08D0FFF7D0
:10045C00AFFE1D4B93F85030012B01D10123FB71E2
:10046C001A4B1B78002B08D0FFF7CAFE164B93F8DB
:10047C00A830012B01D10123FB71154B1B78002BEC
:10048C0007D0FFF7FDFE104B1B78012B01D1012388
:10049C00FB71104B1B78002B08D0FFF71FFF0A4B8A
:1004AC0093F80831012B01D10123FB71FB79002B4F
:1004BC0001D0FFF793FF084800F0CEFB00BF0837D0
:1004CC00BD4680BD7C000020CC0000207D000020BB
:1004DC007E0000207F0000208000002080B483B0CC
:1004EC0000AF03463960FB711346BB71144ABB79EC
:1004FC001370FB79032B0ED0032B10DC012B02D0D5
:10050C00022B04D00BE00E4B0E4A5A6009E00C4B48
:10051C000D4A5A6005E00A4B0C4A5A6001E006236A
:10052C0008E03B689AB2064BA3F84C20084B01221A
:10053C001A70002318460C37BD4680BC704700BFAC
:10054C00CC0000200038014000440040004800402E
:10055C007E00002080B582B000AF0346FB71FB79B2
:10056C00032B5CD801A252F823F000BF89050008C8
:10057C00950500088D0500089105000800234EE044
:10058C0001234CE002234AE0274B93F90030032B64
:10059C003ED801A252F823F0B5050008CF0500089B
:1005AC00E90500081D060008204806F07CF9034602
:1005BC00FB71FB79082B2DD10020FFF7C1FD042323
:1005CC002DE01B4802F0D6F90346FB71FB79022B98
:1005DC0022D10120FFF7B4FD032320E0154804F0DD
:1005EC009DFE0346FB71FB79012B04D10220FFF722
:1005FC00A7FD052313E0FB79042B04D10220FFF7A0
:10060C009FFD04230BE0FB79402B07D1082306E068
:10061C0000BF04E000BF02E000BF00E000BF1846CE
:10062C000837BD4680BD00BF00000020D000002070
:10063C00200100207C01002080B58AB002AFB96097
:10064C007B600346FB731346BB737B68002B01D0A6
:10065C007B6801E04FF47A737B6097F90F30032BC2
:10066C0071D801A252F823F085060008070700088C
:10067C00BD06000853070008384B1B78002B09D126
:10068C00BB7B9AB27B68B968354805F0A1FD03467F
:10069C00FB7759E0334B4FF4CA721A60BB7B9BB2A9
:1006AC001A46B9682E4805F02AFE0346FB774BE044
:1006BC002A4B93F8A830002B15D1BB7B184606F0BB
:1006CC00B9FB0346BB61BB7B9AB27B6800931346B4
:1006DC00BA68B969244804F061FA0346FB77B86933
:1006EC0006F0B0FB30E0BB7B9BB21A46B9681E48E3
:1006FC0004F0FEFB0346FB7726E0184B93F85030D2
:10070C00002B16D1BB7B184606F094FB03467B618D
:10071C00164B1988BB7B9BB24FF47A7200927A69A4
:10072C00134801F0A5FC0346FB77786906F08AFBB9
:10073C000AE0BB7B9BB21A46B9680D4801F004FF76
:10074C000346FB7700E000BFFB7F1846FFF702FF74
:10075C00034618462037BD4680BD00BFCC000020A4
:10076C00D0000020280200207C010020CA000020BC
:10077C002001002080B483B000AF7860064B1B686A
:10078C000133054A1360054B00221A7000BF0C3769
:10079C00BD4680BC704700BF28020020010000202D
:1007AC0080B483B000AF7860034B01221A7000BF95
:1007BC000C37BD4680BC70470100002080B483B06C
:1007CC0000AF7860034B02221A7000BF0C37BD4695
:1007DC0080BC70470100002080B500AF00F006FE21
:1007EC0000F02EF800F0DAF900F070F800F09CF848
:1007FC0000F0C8F800F0FCF800F07CF900F0A4F967
:10080C0000F02CF901224FF416510120FFF766FE7F
:10081C00FFF712FE084B1B78012B06D100224FF478
:10082C000051064801F084FAF4E701224FF400511C
:10083C00024801F07DFAEDE7C800002000100140ED
:10084C0080B590B000AF07F118032822002118469C
:10085C0006F0AEFB3B1D00221A605A609A60DA600B
:10086C001A610123BB614FF48033FB6100233B62AF
:10087C000123BB6202237B634FF48033BB634FF4D1
:10088C00E013FB6307F11803184603F0CBFC034697
:10089C00002B01D000F0DAF90F237B600223BB6040
:1008AC000023FB604FF480633B6100237B613B1DA5
:1008BC000221184603F038FF0346002B01D000F04C
:1008CC00C5F900BF4037BD4680BD000080B500AF04
:1008DC00124B134A1A60114B124A5A600F4B0022EA
:1008EC009A600E4B0022DA600C4B4FF480421A6176
:1008FC000A4B00225A61094B00229A61074B0022D5
:10090C00DA61064B00221A62044801F029FA034608
:10091C00002B01D000F09AF900BF80BD6C020020C2
:10092C0000540040A086010080B500AF124B134A62
:10093C001A60114B124A5A600F4B00229A600E4BF0
:10094C000022DA600C4B4FF480421A610A4B0022F1
:10095C005A61094B00229A61074B0022DA61064B5F
:10096C0000221A62044801F0FBF90346002B01D067
:10097C0000F06CF900BF80BDC002002000580040A0
:10098C00A086010080B500AF174B184A1A60164BB1
:10099C004FF482725A60144B00229A60124B002260
:1009AC00DA60114B00221A610F4B00225A610E4B78
:1009BC004FF400729A610C4B0822DA610A4B002248
:1009CC001A62094B00225A62074B00229A62064BAC
:1009DC000A22DA62044804F035F80346002B01D0F1
:1009EC0000F034F900BF80BD14030020003001403A
:1009FC0080B500AF174B184A1A60164B4FF4827231
:100A0C005A60144B00229A60124B0022DA60114B90
:100A1C0000221A610F4B00225A610E4B4FF40072E8
:100A2C009A610C4B0022DA610A4B00221A62094BC4
:100A3C0000225A62074B00229A62064B0A22DA62A3
:100A4C00044803F0FFFF0346002B01D000F0FEF832
:100A5C0000BF80BD6C0300200038004080B586B01C
:100A6C0000AF07F1080300221A605A609A60DA603E
:100A7C003B4600221A605A601D4B4FF080421A60B0
:100A8C001B4B48F69F425A60194B00229A60184B38
:100A9C000122DA60164B00221A61154B00229A6172
:100AAC00134804F022FF0346002B01D000F0CEF8CF
:100ABC004FF48053BB6007F1080319460C4805F04E
:100ACC00A5F80346002B01D000F0C0F800233B60D2
:100ADC0000237B603B461946054805F087FA034620
:100AEC00002B01D000F0B2F800BF1837BD4680BD16
:100AFC00C403002080B500AF114B124A1A60104B92
:100B0C004FF4E1325A600E4B00229A600C4B0022DB
:100B1C00DA600B4B00221A61094B0C225A61084B0C
:100B2C0000229A61064B0022DA61054805F0CEFAE4
:100B3C000346002B01D000F089F800BF80BD00BF38
:100B4C000C0400200038014080B500AF114B124A54
:100B5C001A60104B4FF4E1325A600E4B00229A602F
:100B6C000C4B0022DA600B4B00221A61094B0C2251
:100B7C005A61084B00229A61064B0022DA61054843
:100B8C0005F0A4FA0346002B01D000F05FF800BF7B
:100B9C0080BD00BF540400200044004080B588B0E4
:100BAC0000AF07F1100300221A605A609A60DA60F5
:100BBC00244B9B69234A43F010039361214B9B699F
:100BCC0003F01003FB60FB681E4B9B691D4A43F04E
:100BDC00200393611B4B9B6903F02003BB60BB6834
:100BEC00184B9B69174A43F004039361154B9B699F
:100BFC0003F004037B607B68124B9B69114A43F042
:100C0C00080393610F4B9B6903F008033B603B683F
:100C1C0001224FF400510C4801F08AF84FF40053B4
:100C2C003B6101237B610023BB610223FB6107F164
:100C3C0010031946044800F03BFE00BF2037BD46A8
:100C4C0080BD00BF001002400010014080B400AF16
:100C5C0072B600BF00BFFDE780B582B000AF786010
:100C6C00054A7B681360044B1B68184604F08CFE25
:100C7C0000BF0837BD4680BD9C04002080B483B003
:100C8C0000AF00237B601CE0124A7B6852F82330D3
:100C9C00002B13D00F4A7B6852F823305A1E0D4993
:100CAC007B6841F823200B4A7B6852F82330002BD9
:100CBC0004D1094A7B68012142F823107B68013377
:100CCC007B607B68092BDFDD00BF00BF0C37BD46A6
:100CDC0080BC7047A0040020C804002080B582B0FE
:100CEC0000AF7860FFF7CAFF00BF0837BD4680BD74
:100CFC0080B485B000AF154B9B69144A43F00103D7
:100D0C009361124B9B6903F00103BB60BB680F4BF3
:100D1C00DB690E4A43F08053D3610C4BDB6903F063
:100D2C0080537B607B680A4B5B68FB60FB6823F03D
:100D3C00E063FB60FB6843F00073FB60044AFB68F4
:100D4C00536000BF1437BD4680BC70470010024092
:100D5C000000014080B58AB000AF786007F118033D
:100D6C0000221A605A609A60DA607B681B68334A0A
:100D7C0093422CD1324B9B69314A43F00803936167
:100D8C002F4B9B6903F008037B617B69C023BB611C
:100D9C001223FB6103237B6207F1180319462948D0
:100DAC0000F086FD264BDB69254A43F40013D36122
:100DBC00234BDB6903F400133B613B6900220021E8
:100DCC001F2000F070FC1F2000F089FC31E07B68D4
:100DDC001B681D4A93422CD1194B9B69184A43F04E
:100DEC0008039361164B9B6903F00803FB60FB68D7
:100DFC004FF44063BB611223FB6103237B6207F159
:100E0C00180319460F4800F053FD0D4BDB690C4AD3
:100E1C0043F48003D3610A4BDB6903F48003BB60AA
:100E2C00BB6800220021212000F03DFC212000F0B5
:100E3C0056FC00BF2837BD4680BD00BF00540040A3
:100E4C0000100240000C01400058004080B582B0F8
:100E5C0000AF78607B681B68184A934211D1184B1D
:100E6C00DB69174A23F40013D3614021154800F0C5
:100E7C00A3FE8021134800F09FFE1F2000F03DFCD4
:100E8C0017E07B681B68104A934212D10C4BDB694C
:100E9C000B4A23F48003D3614FF48061094800F0BE
:100EAC008BFE4FF40061074800F086FE212000F015
:100EBC0024FC00BF0837BD4680BD00BF0054004075
:100ECC0000100240000C01400058004080B58AB070
:100EDC0000AF786007F1180300221A605A609A601C
:100EEC00DA607B681B683F4A934238D13E4B9B6962
:100EFC003D4A43F4805393613B4B9B6903F480530D
:100F0C007B617B69384B9B69374A43F004039361DF
:100F1C00354B9B6903F004033B613B69A023BB6128
:100F2C000223FB6103237B6207F1180319462F4848
:100F3C0000F0BEFC4023BB610023FB6100233B623D
:100F4C0007F118031946294800F0B2FC00220021D1
:100F5C00232000F0A8FB232000F0C1FB3EE07B68BF
:100F6C001B68234A934239D11F4BDB691E4A43F459
:100F7C008043D3611C4BDB6903F48043FB60FB684B
:100F8C00194B9B69184A43F008039361164B9B69F4
:100F9C0003F00803BB60BB684FF42043BB61022322
:100FAC00FB6103237B6207F118031946114800F01B
:100FBC007FFC4FF48043BB610023FB6100233B6249
:100FCC0007F1180319460B4800F072FC00220021AF
:100FDC00242000F068FB242000F081FB00BF2837A0
:100FEC00BD4680BD003001400010024000080140A9
:100FFC0000380040000C014080B582B000AF786032
:10100C007B681B68134A93420DD1134B9B69124AA0
:10101C0023F480539361E021104800F0CDFD232090
:10102C0000F06BFB12E07B681B680D4A93420DD1FC
:10103C00094BDB69084A23F48043D3614FF46041C8
:10104C00084800F0B9FD242000F057FB00BF08371A
:10105C00BD4680BD00300140001002400008014038
:10106C0000380040000C014080B584B000AF7860BF
:10107C007B681B68B3F1804F13D10C4BDB690B4AB7
:10108C0043F00103D361094BDB6903F00103FB60FF
:10109C00FB68002200211C2000F005FB1C2000F046
:1010AC001EFB00BF1037BD4680BD00BF00100240C4
:1010BC0080B58AB000AF786007F1180300221A607F
:1010CC005A609A60DA607B681B683F4A93423AD157
:1010DC003E4B9B693D4A43F4804393613B4B9B6978
:1010EC0003F480437B617B69384B9B69374A43F03F
:1010FC0004039361354B9B6903F004033B613B692B
:10110C004FF40073BB610223FB6103237B6207F185
:10111C00180319462E4800F0CBFB4FF48063BB61DB
:10112C000023FB6100233B6207F118031946284892
:10113C0000F0BEFB00220021252000F0B4FA25208F
:10114C0000F0CDFA3CE07B681B68224A934237D111
:10115C001E4BDB691D4A43F40033D3611B4BDB6927
:10116C0003F40033FB60FB68184B9B69174A43F090
:10117C0004039361154B9B6903F00403BB60BB68CC
:10118C000423BB610223FB6103237B6207F1180379
:10119C0019460F4800F08CFB0823BB610023FB6150
:1011AC0000233B6207F118031946094800F080FB45
:1011BC0000220021262000F076FA262000F08FFA7B
:1011CC0000BF2837BD4680BD0038014000100240EA
:1011DC00000801400044004080B582B000AF786048
:1011EC007B681B68134A93420ED1134B9B69124ABE
:1011FC0023F4804393614FF4C061104800F0DCFC91
:10120C00252000F07AFA11E07B681B680C4A9342A7
:10121C000CD1094BDB69084A23F40033D3610C2150
:10122C00064800F0C9FC262000F067FA00BF08371A
:10123C00BD4680BD0038014000100240000801404E
:10124C000044004080B400AF00BFFDE780B400AFA5
:10125C0000BFFDE780B400AF00BFFDE780B400AF76
:10126C0000BFFDE780B400AF00BFFDE780B400AF66
:10127C0000BFBD4680BC704780B400AF00BFBD4608
:10128C0080BC704780B400AF00BFBD4680BC7047C7
:10129C0080B500AF00F0F0F800BF80BD80B500AFA6
:1012AC00024804F0C3FB00BF80BD00BFC403002094
:1012BC0080B500AF024801F0B5F900BF80BD00BF9A
:1012CC006C02002080B500AF024801F0ABF900BF02
:1012DC0080BD00BFC002002080B500AF024803F003
:1012EC002DFF00BF80BD00BF1403002080B500AFF0
:1012FC00024803F023FF00BF80BD00BF6C03002039
:10130C0080B500AF024805F01FF800BF80BD00BFDC
:10131C000C04002080B500AF024805F015F800BFA2
:10132C0080BD00BF5404002080B586B000AF78604B
:10133C00144A154BD31A7B617B693B61134B1B68B9
:10134C00002B02D1114B124A1A60104B1A687B68A1
:10135C0013443A699A4207D205F042FE03460C2226
:10136C001A604FF0FF3309E0084B1B68FB60074B1A
:10137C001A687B681344054A1360FB6818461837D3
:10138C00BD4680BD0050002000040000F004002089
:10139C004006002080B400AF00BFBD4680BC704743
:1013AC00FFF7F8FF0B480C490C4A002302E0D45815
:1013BC00C4500433C4188C42F9D3094A094C002395
:1013CC0001E013600432A242FBD305F00FFEFFF7DD
:1013DC0003FA704700000020600000202071000814
:1013EC006000002040060020FEE7000080B500AF42
:1013FC00084B1B68074A43F010031360032000F0EE
:10140C0047F90F2000F008F8FFF772FC002318468C
:10141C0080BD00BF0020024080B582B000AF786074
:10142C00124B1A68124B1B7819464FF47A73B3FBA4
:10143C00F1F3B2FBF3F3184600F06DF90346002B01
:10144C0001D001230EE07B680F2B0AD800227968AB
:10145C004FF0FF3000F027F9064A7B681360002339
:10146C0000E0012318460837BD4680BD040000206B
:10147C000C0000200800002080B400AF054B1B7846
:10148C001A46054B1B681344034A136000BFBD4644
:10149C0080BC70470C000020F404002080B400AF26
:1014AC00024B1B681846BD4680BC7047F4040020F4
:1014BC0080B485B000AF78607B6803F00703FB60F5
:1014CC000C4BDB68BB60BA684FF6FF031340BB6084
:1014DC00FB681A02BB68134343F0BF6343F4003349
:1014EC00BB60044ABB68D36000BF1437BD4680BCE8
:1014FC00704700BF00ED00E080B400AF044BDB6828
:10150C001B0A03F007031846BD4680BC704700BF9A
:10151C0000ED00E080B483B000AF0346FB7197F997
:10152C000730002B0BDBFB7903F01F02064997F900
:10153C0007305B09012000FA02F241F8232000BFBA
:10154C000C37BD4680BC704700E100E080B483B02E
:10155C0000AF0346FB7197F90730002B12DBFB79C8
:10156C0003F01F020A4997F907305B09012000FAC2
:10157C0002F2203341F82320BFF34F8F00BFBFF39B
:10158C006F8F00BF00BF0C37BD4680BC704700BFDB
:10159C0000E100E080B483B000AF03463960FB711A
:1015AC0097F90730002B0ADB3B68DAB20C4997F944
:1015BC0007301201D2B20B4483F800230AE03B68D7
:1015CC00DAB20849FB7903F00F03043B1201D2B2E3
:1015DC000B441A7600BF0C37BD4680BC704700BF69
:1015EC0000E100E000ED00E080B489B000AFF860ED
:1015FC00B9607A60FB6803F00703FB61FB69C3F118
:10160C000703042B28BF0423BB61FB690433062B9F
:10161C0002D9FB69033B00E000237B614FF0FF32F2
:10162C00BB6902FA03F3DA43BB681A407B699A4040
:10163C004FF0FF317B6901FA03F3D9437B680B4010
:10164C00134318462437BD4680BC704780B582B022
:10165C0000AF78607B68013BB3F1807F01D301233D
:10166C000FE00A4A7B68013B53600F214FF0FF30BB
:10167C00FFF790FF054B00229A60044B07221A607B
:10168C00002318460837BD4680BD00BF10E000E0BF
:10169C0080B582B000AF78607868FFF709FF00BFB3
:1016AC000837BD4680BD80B586B000AF0346B96033
:1016BC007A60FB7300237B61FFF71EFF78617A6809
:1016CC00B9687869FFF790FF024697F90F30114619
:1016DC001846FFF75FFF00BF1837BD4680BD80B5C9
:1016EC0082B000AF0346FB7197F907301846FFF73D
:1016FC0011FF00BF0837BD4680BD80B582B000AF7A
:10170C000346FB7197F907301846FFF71FFF00BF20
:10171C000837BD4680BD80B582B000AF7860786870
:10172C00FFF794FF034618460837BD4680BD80B4CA
:10173C0085B000AF78600023FB737B6893F8213091
:10174C00DBB2022B08D07B6804229A637B680022F0
:10175C0083F82020012320E07B681B681A687B68D3
:10176C001B6822F00E021A607B681B681A687B6883
:10177C001B6822F001021A607B681A6C7B68DB6BB9
:10178C00012101FA02F25A607B68012283F82120C0
:10179C007B68002283F82020FB7B18461437BD465B
:1017AC0080BC704780B584B000AF78600023FB73B9
:1017BC007B6893F82130DBB2022B05D07B680422C6
:1017CC009A630123FB7351E07B681B681A687B6882
:1017DC001B6822F00E021A607B681B681A687B6813
:1017EC001B6822F001021A607B681B68224A934234
:1017FC0029D07B681B68214A934222D07B681B68E6
:10180C001F4A93421AD07B681B681E4A934212D01F
:10181C007B681B681C4A93420AD07B681B681B4A76
:10182C00934202D14FF480130EE04FF080730BE023
:10183C004FF4803308E04FF4805305E04FF480738D
:10184C0002E0102300E00123114A53607B6801225F
:10185C0083F821207B68002283F820207B685B6B57
:10186C00002B03D07B685B6B78689847FB7B184632
:10187C001037BD4680BD00BF080002401C0002406E
:10188C003000024044000240580002406C0002400C
:10189C000000024080B483B000AF78607B6893F89E
:1018AC002130DBB218460C37BD4680BC70470000B7
:1018BC0080B48BB000AF7860396000237B6200236A
:1018CC003B6269E101227B6A02FA03F3FB613B682C
:1018DC001B68FA691340BB61BA69FB699A4240F014
:1018EC0058813B685B689A4A93425ED0984A93420F
:1018FC0075D8984A934258D0964A93426FD8964AD4
:10190C00934252D0944A934269D8944A93424CD011
:10191C00924A934263D8924A934246D0904A934259
:10192C005DD8122B2AD8122B59D801A252F823F0C9
:10193C00B719000891190008A3190008E519000847
:10194C00EB190008EB190008EB190008EB1900085B
:10195C00EB190008EB190008EB190008EB1900084B
:10196C00EB190008EB190008EB190008EB1900083B
:10197C00EB19000899190008AD190008794A93422F
:10198C0013D02CE03B68DB683B6229E03B68DB68EA
:10199C0004333B6224E03B68DB6808333B621FE0A6
:1019AC003B68DB680C333B621AE03B689B68002B9E
:1019BC0002D104233B6213E03B689B68012B05D1E9
:1019CC0008233B627B68FA691A6109E008233B62D1
:1019DC007B68FA695A6103E000233B6200E000BFB8
:1019EC00BB69FF2B01D87B6801E07B6804337B610A
:1019FC00BB69FF2B02D87B6A9B0002E07B6A083B29
:101A0C009B003B617B691A680F213B6901FA03F368
:101A1C00DB431A40396A3B6901FA03F31A437B69C9
:101A2C001A603B685B6803F08053002B00F0B180B8
:101A3C004D4B9B694C4A43F0010393614A4B9B69A4
:101A4C0003F00103BB60BB68484A7B6A9B08023306
:101A5C0052F82330FB607B6A03F003039B000F22D8
:101A6C0002FA03F3DB43FA681340FB607B68404ADD
:101A7C00934213D07B683F4A93420DD07B683E4A19
:101A8C00934207D07B683D4A934201D1032306E081
:101A9C00042304E0022302E0012300E000237A6A1D
:101AAC0002F0030292009340FA681343FB602F4943
:101ABC007B6A9B080233FA6841F823203B685B6819
:101ACC0003F48013002B06D02D4B9A682C49BB696C
:101ADC0013438B6006E02A4B9A68BB69DB432849A9
:101AEC0013408B603B685B6803F40013002B06D03B
:101AFC00234BDA682249BB691343CB6006E0204BC9
:101B0C00DA68BB69DB431E491340CB603B685B68FA
:101B1C0003F40033002B06D0194B5A681849BB69E3
:101B2C0013434B6006E0164B5A68BB69DB43144900
:101B3C0013404B603B685B6803F48033002B21D06F
:101B4C000F4B1A680E49BB6913430B6021E000BFB1
:101B5C000000321000003110000022100000211093
:101B6C000000121000001110001002400000014093
:101B7C0000080140000C014000100140001401401D
:101B8C00000401400B4B1A68BB69DB430949134045
:101B9C000B607B6A01337B623B681A687B6A22FAB2
:101BAC0003F3002B7FF48EAE00BF00BF2C37BD4675
:101BBC0080BC70470004014080B489B000AF7860ED
:101BCC0039600023FB619AE00122FB6902FA03F3FE
:101BDC003A681340BB61BB69002B00F08D804E4A04
:101BEC00FB699B08023352F823307B61FB6903F0DD
:101BFC0003039B000F2202FA03F37A6913407B6103
:101C0C007B68464A934213D07B68454A93420DD079
:101C1C007B68444A934207D07B68434A934201D184
:101C2C00032306E0042304E0022302E0012300E086
:101C3C000023FA6902F00302920093407A699A42F7
:101C4C0032D13A4B1A68BB69DB43384913400B60FD
:101C5C00364B5A68BB69DB43344913404B60334BFA
:101C6C00DA68BB69DB4331491340CB602F4B9A6870
:101C7C00BB69DB432D4913408B60FB6903F0030305
:101C8C009B000F2202FA03F37B61234AFB699B083A
:101C9C00023352F823107B69DA431F48FB699B0817
:101CAC000A40023340F82320BB69FF2B01D87B6824
:101CBC0001E07B6804333B61BB69FF2B02D8FB69F5
:101CCC009B0002E0FB69083B9B00FB603B691A68C8
:101CDC000F21FB6801FA03F3DB431A400421FB6874
:101CEC0001FA03F31A433B691A607B68DA68BB6933
:101CFC00DB431A407B68DA60FB690133FB613A68AD
:101D0C00FB6922FA03F3002B7FF45EAF00BF00BF28
:101D1C002437BD4680BC70470000014000080140DC
:101D2C00000C01400010014000140140000401406F
:101D3C0080B483B000AF78600B467B8013467B7019
:101D4C007B78002B03D07A887B681A6103E07B8850
:101D5C001A047B681A6100BF0C37BD4680BC704703
:101D6C0080B584B000AF78607B68002B01D1012373
:101D7C002BE17B6893F83D30DBB2002B06D17B68FE
:101D8C00002283F83C207868FEF7E4FF7B6824226D
:101D9C0083F83D207B681B681A687B681B6822F0FF
:101DAC0001021A607B681B681A687B681B6842F426
:101DBC0000421A607B681B681A687B681B6822F4F7
:101DCC0000421A6002F0F8FDF8607B685B68814A9B
:101DDC00934207D8FB68804A934294BF01230023A7
:101DEC00DBB206E0FB687D4A934294BF01230023DB
:101DFC00DBB2002B01D00123E7E0FB68784AA2FBA1
:101E0C0003239B0CBB607B681B685B6823F03F0162
:101E1C007B681B68BA680A435A607B681B681B6A3C
:101E2C0023F03F017B685B686A4A934202D8BB6827
:101E3C00013309E0BB684FF4967202FB03F3694A65
:101E4C00A2FB03239B0901337A6812680B431362CC
:101E5C007B681B68DB6923F44F4222F0FF027B682E
:101E6C005B685C498B4219D8FB68591E7B685B68C0
:101E7C005B00B1FBF3F3591C40F6FC730B40002BD9
:101E8C000AD0FB68591E7B685B685B00B1FBF3F3FF
:101E9C000133C3F30B0351E004234FE07B689B68D1
:101EAC00002B11D1FB68581E7B6859680B465B00F0
:101EBC000B44B0FBF3F30133C3F30B03002B0CBF48
:101ECC0001230023DBB212E0FB68581E7B685968C3
:101EDC000B469B000B4499000B44B0FBF3F301330E
:101EEC00C3F30B03002B0CBF01230023DBB2002B2D
:101EFC0001D0012322E07B689B68002B0ED1FB688C
:101F0C00581E7B6859680B465B000B44B0FBF3F31F
:101F1C000133C3F30B0343F400430FE0FB68581E7B
:101F2C007B6859680B469B000B4499000B44B0FB33
:101F3C00F3F30133C3F30B0343F4404379680968AB
:101F4C001343CB617B681B681B6823F0C0017B6863
:101F5C00DA697B681B6A1A437B681B680A431A6040
:101F6C007B681B689B6823F4034323F0FF037A68A8
:101F7C0011697A68D26811437A6812680B439360CE
:101F8C007B681B68DB6823F0FF017B685A697B6800
:101F9C009B691A437B681B680A43DA607B681B6881
:101FAC001A687B681B6842F001021A607B68002289
:101FBC001A647B68202283F83D207B6800221A6318
:101FCC007B68002283F83E20002318461037BD465C
:101FDC0080BD00BFA08601007F841E00FF083D006D
:101FEC0083DE1B43D34D621080B582B000AF7860A6
:101FFC007B68002B01D1012321E07B68242283F82C
:10200C003D207B681B681A687B681B6822F0010204
:10201C001A607868FEF71AFF7B6800221A647B68E6
:10202C00002283F83D207B6800221A637B68002223
:10203C0083F83E207B68002283F83C20002318465E
:10204C000837BD4680BD80B483B000AF78607B6834
:10205C001B685B6903F08003802B03D17B681B68D2
:10206C0000221A6100BF0C37BD4680BC70470000CF
:10207C0080B58CB002AFF8607A601A460B467B8153
:10208C0013463B8100233B62FFF708FA7862FB683A
:10209C0093F83D30DBB2202B40F04B827B6A0093EF
:1020AC00192301227F49F86801F0F8FE0346002B42
:1020BC0001D002233EE2FB6893F83C30012B01D1A6
:1020CC00022337E2FB68012283F83C20FB681B6883
:1020DC001B6803F00103012B07D0FB681B681A680F
:1020EC00FB681B6842F001021A60FB681B681A68E7
:1020FC00FB681B6822F400621A60FB68222283F8DA
:10210C003D20FB68102283F83E20FB6800221A64F5
:10211C00FB687A685A62FB683A895A85FB685B8D62
:10212C009AB2FB681A85FB685F4ADA6279897B6A26
:10213C003A6BF86801F03CFD0346002B01D00123FB
:10214C00F8E1FB681B8D002B13D10023FB61FB68AE
:10215C001B685B69FB61FB681B689B69FB61FB6926
:10216C00FB681B681A68FB681B6842F400721A60F3
:10217C00CCE1FB681B8D012B1ED1FB681B681A6818
:10218C00FB681B6822F480621A6072B600BF0023E1
:10219C00BB61FB681B685B69BB61FB681B689B6967
:1021AC00BB61BB69FB681B681A68FB681B6842F45F
:1021BC0000721A6062B635E0FB681B8D022B1ED1D3
:1021CC00FB681B681A68FB681B6842F400621A60A3
:1021DC0072B600BF00237B61FB681B685B697B6187
:1021EC00FB681B689B697B617B69FB681B681A68D1
:1021FC00FB681B6822F480621A6062B612E0FB680E
:10220C001B681A68FB681B6842F480621A60002322
:10221C003B61FB681B685B693B61FB681B689B69E6
:10222C003B613B6972E1FB681B8D032B00F21F8144
:10223C00FB681B8D012B23D17A6A396BF86801F08E
:10224C0079FF0346002B01D0012373E1FB681B6867
:10225C001A69FB685B6AD2B21A70FB685B6A5A1C1B
:10226C00FB685A62FB681B8D013B9AB2FB681A85AE
:10227C00FB685B8D9BB2013B9AB2FB685A8545E1CA
:10228C00FB681B8D022B52D17B6A00933B6B0022A7
:10229C000649F86801F002FE0346002B08D0012322
:1022AC0048E100BF020010000000FFFF0400010025
:1022BC0072B600BFFB681B681A68FB681B6842F4A7
:1022CC0000721A60FB681B681A69FB685B6AD2B201
:1022DC001A70FB685B6A5A1CFB685A62FB681B8DA0
:1022EC00013B9AB2FB681A85FB685B8D9BB2013B84
:1022FC009AB2FB685A8562B600BFFB681B681A6904
:10230C00FB685B6AD2B21A70FB685B6A5A1CFB688A
:10231C005A62FB681B8D013B9AB2FB681A85FB68FD
:10232C005B8D9BB2013B9AB2FB685A85EEE07B6AEF
:10233C0000933B6B00228149F86801F0AFFD034626
:10234C00002B01D00123F5E0FB681B681A68FB68C1
:10235C001B6822F480621A6072B600BFFB681B68AF
:10236C001A69FB685B6AD2B21A70FB685B6A5A1C0A
:10237C00FB685A62FB681B8D013B9AB2FB681A859D
:10238C00FB685B8D9BB2013B9AB2FB685A856C4B28
:10239C001B68DB086B4AA2FB03231A0A13469B003B
:1023AC001344DA00D31A3B623B6A013B3B623B6A43
:1023BC00002B18D1FB6800221A63FB68202283F8DB
:1023CC003D20FB68002283F83E20FB681B6C43F029
:1023DC002002FB681A6462B600BFFB68002283F817
:1023EC003C200123A6E0FB681B685B6903F0040337
:1023FC00042BD9D1FB681B681A68FB681B6842F474
:10240C0000721A60FB681B681A69FB685B6AD2B2BF
:10241C001A70FB685B6A5A1CFB685A62FB681B8D5E
:10242C00013B9AB2FB681A85FB685B8D9BB2013B42
:10243C009AB2FB685A8562B600BFFB681B681A69C2
:10244C00FB685B6AD2B21A70FB685B6A5A1CFB6849
:10245C005A62FB681B8D013B9AB2FB681A85FB68BC
:10246C005B8D9BB2013B9AB2FB685A854EE07A6A4F
:10247C00396BF86801F05EFE0346002B01D0012396
:10248C0058E0FB681B681A69FB685B6AD2B21A7069
:10249C00FB685B6A5A1CFB685A62FB681B8D013B2C
:1024AC009AB2FB681A85FB685B8D9BB2013B9AB2B2
:1024BC00FB685A85FB681B685B6903F00403042BFB
:1024CC0024D1FB681B8D032B07D1FB681B681A6892
:1024DC00FB681B6822F480621A60FB681B681A692F
:1024EC00FB685B6AD2B21A70FB685B6A5A1CFB68A9
:1024FC005A62FB681B8D013B9AB2FB681A85FB681C
:10250C005B8D9BB2013B9AB2FB685A85FB681B8DB5
:10251C00002B7FF488AEFB68202283F83D20FB68FB
:10252C00002283F83E20FB68002283F83C20002325
:10253C0000E0022318462837BD4680BD0400010088
:10254C000400002089B5F81480B485B000AFF860A1
:10255C00B9601346FB80FB6893F83D30DBB2202B4F
:10256C0058D1BB68002B02D0FB88002B01D1012372
:10257C0051E0FB6893F83C30012B01D102234AE077
:10258C00FB68012283F83C20FB681B681B6803F086
:10259C000103012B07D0FB681B681A68FB681B68DA
:1025AC0042F001021A60FB681B681A68FB681B6822
:1025BC0022F400621A60FB68222283F83D20FB683B
:1025CC00202283F83E20FB6800221A64FB68BA685C
:1025DC005A62FB68FA885A85FB685B8D9AB2FB6875
:1025EC001A85FB680E4ADA62FB681B681A68FB687E
:1025FC001B6842F480621A60FB68002283F83C205E
:10260C00FB681B685A68FB681B6842F4E0625A60FE
:10261C00002300E0022318461437BD4680BC7047E7
:10262C000000FFFF80B588B000AF78600023BB616D
:10263C007B681B685B687B617B68DB6A3B617B68E2
:10264C0093F83E30FB737B6893F83D30BB73FB7B98
:10265C00102B03D0FB7B402B40F0B1807B681B68B8
:10266C009B69BB617B681B685B69FB61FB6903F061
:10267C000103002B0DD13B69B3F52A0F03D03B6945
:10268C00B3F12A4F01D1012300E00023012B00F00C
:10269C001481FB6903F00103002B0BD07B6903F45D
:1026AC000073002B06D0786801F0A1FD786800F06B
:1026BC00CFFC83E0FB6903F00803002B08D07B6997
:1026CC0003F40073002B03D0786800F046FD75E02E
:1026DC00FB6903F00203002B08D07B6903F4007341
:1026EC00002B03D0786800F061FD67E0BB6903F054
:1026FC000403002B36D07B681B685B6803F4006313
:10270C00B3F5006F00F0DB80FB6903F08003002B56
:10271C000DD07B6903F48063002B08D0FB6903F0B8
:10272C000403002B03D1786800F02FF946E0FB6915
:10273C0003F00403002B00F0C2807B6903F40073E8
:10274C00002B00F0BC80BB7B212B03D1786800F000
:10275C00B8F9B4E0FB7B402B40F0B180786800F016
:10276C0026FAACE07B681B685B6803F40063B3F586
:10277C00006F00F0A480FB6903F04003002B0DD028
:10278C007B6903F48063002B08D0FB6903F004031E
:10279C00002B03D1786800F0A2FA0FE0FB6903F07C
:1027AC000403002B00F08B807B6903F40073002B77
:1027BC0000F08580786800F05AFB80E07FE07B6851
:1027CC001B6C002B04D07B681B685B69FB6107E00A
:1027DC007B681B689B69BB617B681B685B69FB61E1
:1027EC00FB6903F00203002B11D07B6903F4007327
:1027FC00002B0CD07B681B6C002B03D07B681B68F8
:10280C009B69BB61B969786800F027FF5AE0FB69E6
:10281C0003F01003002B08D07B6903F40073002B2A
:10282C0003D0786800F062FF4CE0BB7B212B02D018
:10283C00BB7B292B20D1FB6903F08003002B0DD02F
:10284C007B6903F48063002B08D0FB6903F004035D
:10285C00002B03D1786800F044FE32E0FB6903F0F2
:10286C000403002B2DD07B6903F40073002B28D0BC
:10287C00786800F073FE24E0FB6903F04003002B42
:10288C000DD07B6903F48063002B08D0FB6903F047
:10289C000403002B03D1786800F080FE12E0FB6982
:1028AC0003F00403002B0DD07B6903F40073002BA1
:1028BC0008D0786800F0B0FE04E000BF02E000BF72
:1028CC0000E000BF2037BD4680BD80B483B000AFB0
:1028DC00786000BF0C37BD4680BC704780B483B0B5
:1028EC0000AF786000BF0C37BD4680BC704780B429
:1028FC0083B000AF786000BF0C37BD4680BC70471A
:10290C0080B483B000AF78600B46FB7013463B80FD
:10291C0000BF0C37BD4680BC704780B483B000AF9D
:10292C00786000BF0C37BD4680BC704780B483B064
:10293C0000AF786000BF0C37BD4680BC704780B4D8
:10294C0083B000AF786000BF0C37BD4680BC7047C9
:10295C0080B483B000AF786000BF0C37BD4680BC3C
:10296C00704780B483B000AF786000BF0C37BD46B1
:10297C0080BC704780B483B000AF78607B681B6C00
:10298C0018460C37BD4680BC704780B584B000AF8C
:10299C0078607B6893F83D30FB737B6893F83E302E
:1029AC00BB737B68DB6ABB607B681B8D002B50D1D3
:1029BC00FB7B212B4DD1BB68082B1DD0BB68202B7A
:1029CC001AD0BB6813F5803F16D07B681B685A6819
:1029DC007B681B6822F4E0625A607B6811221A63E0
:1029EC007B68002283F83E207B68202283F83D2000
:1029FC007868FFF76AFF60E07B681B685A687B6841
:102A0C001B6822F4E0625A607B681B681A687B685A
:102A1C001B6842F400721A607B6800221A637B68A0
:102A2C00202283F83D207B6893F83E30DBB2402BAC
:102A3C0007D17B68002283F83E207868FFF776FF89
:102A4C003BE07B68002283F83E207868FFF73DFF6F
:102A5C0033E0FB7B212B05D0BB7B402B2DD1FB7BAB
:102A6C00222B2AD17B685B8D9BB2002B08D17B6813
:102A7C001B685A687B681B6822F480625A601CE0F1
:102A8C007B6893F83E30DBB2402B03D1786800F0C2
:102A9C008EF812E07B685B6A1A787B681B681A6197
:102AAC007B685B6A5A1C7B685A627B685B8D9BB245
:102ABC00013B9AB27B685A85FFE700BF1037BD46D1
:102ACC0080BD80B584B000AF78607B68DB6AFB604A
:102ADC007B6893F83D30DBB2212B64D17B685B8D36
:102AEC009BB2002B12D07B685B6A1A787B681B68E0
:102AFC001A617B685B6A5A1C7B685A627B685B8DC7
:102B0C009BB2013B9AB27B685A854CE0FB68082B60
:102B1C001DD0FB68202B1AD0FB6813F5803F16D014
:102B2C007B681B685A687B681B6822F4E0625A60F9
:102B3C007B6811221A637B68002283F83E207B6835
:102B4C00202283F83D207868FFF7BFFE2BE07B68DE
:102B5C001B685A687B681B6822F4E0625A607B68C9
:102B6C001B681A687B681B6842F400721A607B68E9
:102B7C0000221A637B68202283F83D207B6893F83F
:102B8C003E30DBB2402B07D17B68002283F83E201D
:102B9C007868FFF7CBFE06E07B68002283F83E20C6
:102BAC007868FFF792FE00BF1037BD4680BD80B538
:102BBC0084B000AF78607B6893F83D30FB737B6822
:102BCC001B6D002B1DD17B68DB6C012B0BD17B6843
:102BDC009B6CDAB27B681B681A617B681B6D9A1C54
:102BEC007B681A6577E07B689B6C9BB21B12DAB230
:102BFC007B681B681A617B681B6D5A1C7B681A65A5
:102C0C0069E07B681B6D012B0BD17B689B6CDAB286
:102C1C007B681B681A617B681B6D5A1C7B681A6584
:102C2C0059E07B681B6D022B52D1FB7B222B0DD103
:102C3C007B681B681A687B681B6842F480721A6098
:102C4C007B681B6D5A1C7B681A6544E07B685B8D46
:102C5C009BB2002B15D0FB7B212B12D17B685B6ABE
:102C6C001A787B681B681A617B685B6A5A1C7B68E4
:102C7C005A627B685B8D9BB2013B9AB27B685A852A
:102C8C0029E07B685B8D9BB2002B24D1FB7B212B35
:102C9C0021D17B681B685A687B681B6822F4E06250
:102CAC005A607B681B681A687B681B6842F4007268
:102CBC001A607B6800221A637B68202283F83D200F
:102CCC007B68002283F83E207868FFF72FFE02E035
:102CDC007868FFF7B8F900BF1037BD4680BD80B5E6
:102CEC0084B000AF78607B6893F83D30DBB2222B68
:102CFC0040F0B9807B68DB6AFB607B685B8D9BB2C4
:102D0C00BB60BB68032B21D97B681B681A697B6885
:102D1C005B6AD2B21A707B685B6A5A1C7B685A6217
:102D2C007B685B8D9BB2013B9AB27B685A857B6852
:102D3C005B8D9BB2032B40F096807B681B685A68B6
:102D4C007B681B6822F480625A608CE07B68DB6ACB
:102D5C00022B7FD0BB68012B02D0BB68002B79D132
:102D6C00786801F0B5F90346002B4CD17B681B68E1
:102D7C001A687B681B6822F480621A607B681B6887
:102D8C005A687B681B6822F4E0625A607B681B6897
:102D9C001A697B685B6AD2B21A707B685B6A5A1CD0
:102DAC007B685A627B685B8D9BB2013B9AB27B68F5
:102DBC005A857B68202283F83D207B6893F83E304F
:102DCC00DBB2402B0AD17B68002283F83E207B6863
:102DDC0000221A637868FFF7B2FD44E07B6800229A
:102DEC0083F83E20FB68082B02D0FB68202B03D114
:102DFC007B6800221A6302E07B6812221A637868EF
:102E0C00FFF76CFD2FE07B681B685A687B681B68BA
:102E1C0022F4E0625A607B681B681A697B685B6A03
:102E2C00D2B21A707B685B6A5A1C7B685A627B68E8
:102E3C005B8D9BB2013B9AB27B685A857B682022E2
:102E4C0083F83D207B68002283F83E207868FFF7EA
:102E5C007FFD08E07B681B685A687B681B6822F45E
:102E6C0080625A60FFE700BF1037BD4680BD80B559
:102E7C0084B000AF78607B68DB6AFB607B685B8D3D
:102E8C009BB2042B1BD17B681B685A687B681B6840
:102E9C0022F480625A607B681B681A697B685B6AE3
:102EAC00D2B21A707B685B6A5A1C7B685A627B6868
:102EBC005B8D9BB2013B9AB27B685A85C4E07B6800
:102ECC005B8D9BB2032B29D17B681B685A687B688E
:102EDC001B6822F480625A60FB68042B0AD0FB68E2
:102EEC00022B07D07B681B681A687B681B6822F46E
:102EFC0080621A607B681B681A697B685B6AD2B255
:102F0C001A707B685B6A5A1C7B685A627B685B8DA3
:102F1C009BB2013B9AB27B685A8595E07B685B8DCE
:102F2C009BB2022B7DD1FB68012B02D0FB68102BCE
:102F3C0008D17B681B681A687B681B6822F4806266
:102F4C001A6016E0FB68042B02D0FB68022B08D138
:102F5C007B681B681A687B681B6842F480621A6085
:102F6C0007E07B681B681A687B681B6842F4007278
:102F7C001A607B681B681A697B685B6AD2B21A702C
:102F8C007B685B6A5A1C7B685A627B685B8D9BB260
:102F9C00013B9AB27B685A857B681B681A697B680F
:102FAC005B6AD2B21A707B685B6A5A1C7B685A6285
:102FBC007B685B8D9BB2013B9AB27B685A857B68C0
:102FCC001B685A687B681B6822F440725A607B68E5
:102FDC00202283F83D207B6893F83E30DBB2402BF7
:102FEC000AD17B68002283F83E207B6800221A639A
:102FFC007868FFF7A4FC27E07B68002283F83E206A
:10300C00FB68082B02D0FB68202B03D17B680022C5
:10301C001A6302E07B6812221A637868FFF75EFC81
:10302C0012E07B681B681A697B685B6AD2B21A7003
:10303C007B685B6A5A1C7B685A627B685B8D9BB2AF
:10304C00013B9AB27B685A8500BF1037BD4680BDE4
:10305C0080B483B000AF78607B6893F83E30DBB20D
:10306C00402B17D17B681B6D002B09D17B685B6CE7
:10307C00DBB21A467B681B6802F0FE021A6167E03D
:10308C007B685B6CDBB243F00103DAB27B681B68D4
:10309C001A615DE07B681B69B3F5804F33D17B68A7
:1030AC0093F83D30DBB2212B09D17B685B6CDBB232
:1030BC001A467B681B6802F0FE021A6108E07B6806
:1030CC005B6CDBB243F00103DAB27B681B681A61FC
:1030DC007B685B6B002B04D07B685B6B9B6A002B63
:1030EC0008D17B689B6B002B32D07B689B6B9B6AF7
:1030FC00002B2DD07B681B685A687B681B6842F4D8
:10310C0000625A6024E07B681B6D002B0ED17B683B
:10311C005B6C9BB2DB11DBB203F00603DBB263F03A
:10312C000F03DAB27B681B681A6111E07B681B6DB8
:10313C00012B0DD17B685B6C9BB2DB11DBB203F016
:10314C000603DBB263F00E03DAB27B681B681A610C
:10315C0000BF0C37BD4680BC704780B483B000AF55
:10316C0078607B685B6CDAB27B681B681A617B6881
:10317C005B6B002B04D07B685B6B9B6A002B08D1CC
:10318C007B689B6B002B0CD07B689B6B9B6A002B2A
:10319C0007D07B681B685A687B681B6842F4006226
:1031AC005A6000BF0C37BD4680BC704780B491B0EC
:1031BC0000AF78607B6893F83E3087F83F307B68CF
:1031CC00DB6ABB637B681B6B7B637B6893F83D306E
:1031DC00DBB2222B40F074817B681B6D002B0FD16E
:1031EC0097F83F30402B0BD100233B637B681B6867
:1031FC005B693B637B681B689B693B633B6B6BE167
:10320C007B681B6D002B1DD17B681B69B3F5404F90
:10321C0018D10023FB627B681B685B69FB627B68CF
:10322C001B689B69FB62FB6A7B681B681A687B687E
:10323C001B6842F480721A607B681B6D5A1C7B6899
:10324C001A6549E17B685B8D9BB2002B13D100237F
:10325C00BB627B681B685B69BB627B681B689B6994
:10326C00BB62BB6A7B681B681A687B681B6842F48C
:10327C0000721A6020E17B685B8D9BB2012B40F0E1
:10328C008A80BB6B13F5803F37D17B681B681A684B
:10329C007B681B6822F480621A607B681B685B6821
:1032AC0003F40063B3F5006F13D17B681B681A68D5
:1032BC007B681B6822F480621A6000237B627B6847
:1032CC001B685B697B627B681B689B697B627B6AA2
:1032DC00F2E000233B627B681B685B693B627B68A6
:1032EC001B689B693B623B6A7B681B681A687B683E
:1032FC001B6842F400721A60DEE0BB6B082B2ED008
:10330C00BB6B202B2BD07B6B122B02D1BB6B012BFD
:10331C0025D1BB6B042B0ED0BB6B022B0BD0BB6B24
:10332C00102B08D07B681B681A687B681B6822F41A
:10333C0080621A6007E07B681B681A687B681B68F0
:10334C0042F480621A600023FB617B681B685B6936
:10335C00FB617B681B689B69FB61FB69ACE07B686C
:10336C001B681A687B681B6822F480621A60002351
:10337C00BB617B681B685B69BB617B681B689B6975
:10338C00BB61BB697B681B681A687B681B6842F46D
:10339C0000721A6090E07B685B8D9BB2022B58D157
:1033AC00BB6B042B21D0BB6B022B1ED0BB6B102B29
:1033BC001BD07B681B681A687B681B6842F4006230
:1033CC001A6000237B617B681B685B697B617B688F
:1033DC001B689B697B617B697B681B681A687B68CF
:1033EC001B6822F480621A6012E07B681B681A6802
:1033FC007B681B6842F480621A6000233B617B6827
:10340C001B685B693B617B681B689B693B613B6923
:10341C007B681B685B6803F40063B3F5006F4BD1EA
:10342C00BB6B13F5803F0BD0BB6B012B08D0BB6B78
:10343C00082B05D0BB6B102B02D0BB6B202B3BD1C8
:10344C007B681B685A687B681B6842F480525A6020
:10345C0032E07B681B681A687B681B6842F48062E8
:10346C001A607B681B685B6803F40063B3F5006F3C
:10347C0017D1BB6B13F5803F0BD0BB6B012B08D066
:10348C00BB6B082B05D0BB6B102B02D0BB6B202B5E
:10349C0007D17B681B685A687B681B6842F48052B2
:1034AC005A600023FB607B681B685B69FB607B6870
:1034BC001B689B69FB60FB687B6800221A650BE04C
:1034CC000023BB607B681B685B69BB607B681B6807
:1034DC009B69BB60BB68FFE700BF4437BD4680BC3F
:1034EC00704780B584B000AF78607B6893F83D304E
:1034FC00FB737B685B8D9BB2002B2BD07B685B6A6C
:10350C001A787B681B681A617B685B6A5A1C7B683B
:10351C005A627B685B8D9BB2013B9AB27B685A8581
:10352C007B685B8D9BB2002B14D1FB7B292B11D1BB
:10353C007B681B685A687B681B6822F480625A603F
:10354C007B6821221A637B68282283F83D207868E7
:10355C00FFF7CDF900BF1037BD4680BD80B483B0F6
:10356C0000AF78607B685B8D9BB2002B11D07B68C1
:10357C005B6A1A787B681B681A617B685B6A5A1CE9
:10358C007B685A627B685B8D9BB2013B9AB27B680D
:10359C005A8500BF0C37BD4680BC704780B584B0DF
:1035AC0000AF78607B6893F83D30FB737B685B8D74
:1035BC009BB2002B2CD07B681B681A697B685B6AFA
:1035CC00D2B21A707B685B6A5A1C7B685A627B6841
:1035DC005B8D9BB2013B9AB27B685A857B685B8D95
:1035EC009BB2002B14D1FB7B2A2B11D17B681B685F
:1035FC005A687B681B6822F480625A607B682222BE
:10360C001A637B68282283F83D207868FDF7C8F898
:10361C0000BF1037BD4680BD80B483B000AF78606A
:10362C007B685B8D9BB2002B12D07B681B681A6980
:10363C007B685B6AD2B21A707B685B6A5A1C7B68C7
:10364C005A627B685B8D9BB2013B9AB27B685A8550
:10365C0000BF0C37BD4680BC704780B584B000AF4E
:10366C00786039600023FB737B6893F83D30DBB2E4
:10367C0003F02803282B25D17B681B685A687B68CC
:10368C001B6822F480625A603B6803F00403002B31
:10369C0001D10123FB733B6803F08003002B03D1A2
:1036AC007B68DB68BB8102E07B689B69BB817B68C4
:1036BC00002283F83C20BA89FB7B19467868FFF717
:1036CC001FF90EE00023BB607B681B685B69BB6065
:1036DC007B681B689B69BB60BB687B68002283F8B6
:1036EC003C2000BF1037BD4680BD000080B584B0C3
:1036FC0000AF78607B6893F83D30FB737B681B6888
:10370C005A687B681B6822F4E0625A600023BB6035
:10371C007B681B685B69BB607B681B681A687B688D
:10372C001B6842F001021A60BB687B681B681A6850
:10373C007B681B6822F480621A607B681B685B687C
:10374C0003F40063B3F5006F72D1FB7B222B02D024
:10375C00FB7B2A2B35D17B689B6B1B685B689AB211
:10376C007B685A857B685B8D9BB2002B05D07B6890
:10377C001B6C43F004027B681A647B681B685A68F4
:10378C007B681B6822F400625A607B689B6B18464E
:10379C00FEF780F80346012B49D07B689B6B694A86
:1037AC005A637B689B6B1846FDF7FCFF0346002BA6
:1037BC003DD07B689B6B5B6B7A68926B104698472D
:1037CC0035E07B685B6B1B685B689AB27B685A85DB
:1037DC007B685B8D9BB2002B05D07B681B6C43F028
:1037EC0004027B681A647B681B685A687B681B68D8
:1037FC0022F400625A607B685B6B1846FEF74AF84D
:10380C000346012B14D07B685B6B4E4A5A637B6872
:10381C005B6B1846FDF7C6FF0346002B08D07B6890
:10382C005B6B5B6B7A68526B1046984700E000BF8D
:10383C007B685B8D9BB2002B3ED07B681B685B6901
:10384C0003F00403042B12D17B681B681A697B6894
:10385C005B6AD2B21A707B685B6A5A1C7B685A62CC
:10386C007B685B8D9BB2013B9AB27B685A857B6807
:10387C001B685B6903F04003402B12D17B681B680B
:10388C001A697B685B6AD2B21A707B685B6A5A1CD5
:10389C007B685A627B685B8D9BB2013B9AB27B68FA
:1038AC005A857B685B8D9BB2002B05D07B681B6CAB
:1038BC0043F004027B681A647B681B6C002B03D0FA
:1038CC00786800F043F839E0FB7B2A2B09D17B6840
:1038DC0000221A637B68282283F83D207868FCF765
:1038EC005FFF7B6893F83D30DBB2282B11D17B68EE
:1038FC00154ADA627B6800221A637B68202283F8FF
:10390C003D207B68002283F83E207868FFF705F89D
:10391C0014E07B681B6B222B02D0FB7B222B0DD17E
:10392C007B6800221A637B68202283F83D207B6829
:10393C00002283F83E207868FCF732FF00BF103776
:10394C00BD4680BD593D00080000FFFF80B584B026
:10395C0000AF78607B6893F83D30FB737B6893F81D
:10396C003E30BB73BB7B102B02D0BB7B402B0AD1F0
:10397C00FB7B222B07D17B681B681A687B681B6852
:10398C0022F400621A60FB7B03F02803282B07D17A
:10399C007B6800221A637B68282283F83D2015E09F
:1039AC007B681B685B6803F40063B3F5006F0AD097
:1039BC00FB7B602B07D07B68202283F83D207B6843
:1039CC00002283F83E207B6800221A637B681B6808
:1039DC005B6803F40063B3F5006F62D17B681B680E
:1039EC005A687B681B6822F400625A607B685B6BC8
:1039FC0093F82130DBB2012B20D07B685B6B6A4AD9
:103A0C005A637B685B6B1846FDF7CCFE0346002BB4
:103A1C0000F089807B681B681A687B681B6822F041
:103A2C0001021A607B68202283F83D207B685B6B67
:103A3C005B6B7A68526B1046984774E07B689B6BA3
:103A4C00594A5A637B689B6B1846FDF7ABFE0346DD
:103A5C00002B68D07B681B685B6903F04003402B2C
:103A6C000BD17B681B681A697B685B6AD2B21A70CF
:103A7C007B685B6A5A1C7B685A627B681B681A6895
:103A8C007B681B6822F001021A607B68202283F895
:103A9C003D207B689B6B5B6B7A68926B10469847FA
:103AAC0041E07B6893F83D30DBB2602B25D17B681D
:103ABC00202283F83D207B6800221A647B681B68F7
:103ACC005B6903F04003402B0BD17B681B681A69C0
:103ADC007B685B6AD2B21A707B685B6A5A1C7B6823
:103AEC005A627B681B681A687B681B6822F00102AB
:103AFC001A607868FEF735FF15E07B681B685B6918
:103B0C0003F04003402B0BD17B681B681A697B6860
:103B1C005B6AD2B21A707B685B6A5A1C7B685A6209
:103B2C007868FEF715FF7B681B6CBB60BB6803F005
:103B3C000103002B0ED1BB6803F00203002B09D14B
:103B4C00BB6803F00403002B04D1BB6803F008032B
:103B5C00002B07D07B681B685A687B681B6822F4B3
:103B6C00E0625A607B6893F83D30FB737B681B6C9A
:103B7C0003F00403042B13D1FB7B282B10D17B689F
:103B8C000A4ADA627B6800221A637B68202283F877
:103B9C003D207B68002283F83E207868FEF7BDFE4E
:103BAC0000BF1037BD4680BD593D00080000FFFF27
:103BBC0080B588B002AFF8607A603B600B467B81C1
:103BCC00FB68DB6A7B61FB681B681A68FB681B6817
:103BDC0042F480621A607B69082B06D07B69012B4A
:103BEC0003D07B6913F5803F08D1FB681B681A680A
:103BFC00FB681B6842F480721A600BE0FB681B6B5D
:103C0C00112B07D1FB681B681A68FB681B6842F410
:103C1C0080721A603B6800937B6800224FF00111A0
:103C2C00F86800F03BF90346002B0DD0FB681B68CD
:103C3C001B6803F48073B3F5807F03D1FB684FF4EA
:103C4C0000721A64032379E0FB681B69B3F5804F9B
:103C5C0008D17B89DBB243F00103DAB2FB681B6845
:103C6C001A615FE07B89DB11DBB203F00603DBB288
:103C7C0063F00F03DAB2FB681B681A613B687A6861
:103C8C003049F86800F084F90346002B01D0012379
:103C9C0054E07B89DAB2FB681B681A613B687A686E
:103CAC002949F86800F074F90346002B01D0012370
:103CBC0044E000233B61FB681B685B693B61FB686C
:103CCC001B689B693B613B69FB681B681A68FB6856
:103CDC001B6842F480721A603B6800937B68002278
:103CEC004FF00111F86800F0D9F80346002B0DD005
:103CFC00FB681B681B6803F48073B3F5807F03D1EA
:103D0C00FB684FF400721A64032317E07B89DB1104
:103D1C00DBB203F00603DBB263F00E03DAB2FB682E
:103D2C001B681A613B687A680749F86800F030F93B
:103D3C000346002B01D0012300E00023184618375E
:103D4C00BD4680BD080001000200010080B586B0B0
:103D5C0000AF78600023FB607B685B6A7B617B69EA
:103D6C0093F83D30FB744B4B1B68DB084A4AA2FBB3
:103D7C0003231A0A13469B001344DA00D31AFB6080
:103D8C00FB68002B06D17B691B6C43F020027B691E
:103D9C001A640AE0FB68013BFB607B691B681B68CB
:103DAC0003F40073B3F5007FEAD07B695B6B002BE7
:103DBC0003D07B695B6B00229A627B699B6B002B47
:103DCC0003D07B699B6B00229A627B691B681A6823
:103DDC007B691B6822F480621A607B6900225A8519
:103DEC007B695B6B002B03D07B695B6B00225A6396
:103DFC007B699B6B002B03D07B699B6B00225A6306
:103E0C007B691B681A687B691B6822F001021A60C7
:103E1C007B6993F83D30DBB2602B0ED17B6920229D
:103E2C0083F83D207B69002283F83E207B690022C9
:103E3C001A647869FEF795FD27E0FB7C03F02803F4
:103E4C00282B17D17B691B681A687B691B6842F0A9
:103E5C0001021A607B691B681A687B691B6842F453
:103E6C0080621A607B6900221A637B69282283F8BE
:103E7C003D2007E07B69202283F83D207B690022EE
:103E8C0083F83E207869FEF763FD00BF1837BD4606
:103E9C0080BD00BF0400002089B5F81480B584B043
:103EAC0000AFF860B9603B601346FB7148E03B68BB
:103EBC00B3F1FF3F44D0FDF7F1FA0246BB69D31AC8
:103ECC003A689A4202D33B68002B39D1BB681B0C71
:103EDC00DBB2012B0DD1FB681B685B69DA43BB6855
:103EEC0013409BB2002B0CBF01230023DBB21A46FC
:103EFC000CE0FB681B689B69DA43BB6813409BB200
:103F0C00002B0CBF01230023DBB21A46FB799A422B
:103F1C0016D1FB6800221A63FB68202283F83D202F
:103F2C00FB68002283F83E20FB681B6C43F02002E8
:103F3C00FB681A64FB68002283F83C20012323E011
:103F4C00BB681B0CDBB2012B0DD1FB681B685B69DA
:103F5C00DA43BB6813409BB2002B0CBF0123002338
:103F6C00DBB21A460CE0FB681B689B69DA43BB6842
:103F7C0013409BB2002B0CBF01230023DBB21A466B
:103F8C00FB799A4293D0002318461037BD4680BD6A
:103F9C0080B584B000AFF860B9607A603B6071E0C6
:103FAC00FB681B685B6903F48063B3F5806F23D1F6
:103FBC00FB681B681A68FB681B6842F400721A6085
:103FCC00FB681B686FF480625A61FB6800221A63FD
:103FDC00FB68202283F83D20FB68002283F83E20FA
:103FEC00FB681B6C43F00402FB681A64FB6800223C
:103FFC0083F83C20012367E07B68B3F1FF3F41D09D
:10400C00FDF74CFA02463B68D31A7A689A4202D3FF
:10401C007B68002B36D1BB681B0CDBB2012B0CD19F
:10402C00FB681B685B69DA43BB6813409BB2002BCF
:10403C0014BF01230023DBB20BE0FB681B689B69F8
:10404C00DA43BB6813409BB2002B14BF012300233F
:10405C00DBB2002B16D0FB6800221A63FB6820220F
:10406C0083F83D20FB68002283F83E20FB681B6C24
:10407C0043F02002FB681A64FB68002283F83C20A2
:10408C00012321E0BB681B0CDBB2012B0CD1FB68BC
:10409C001B685B69DA43BB6813409BB2002B14BFEF
:1040AC0001230023DBB20BE0FB681B689B69DA433E
:1040BC00BB6813409BB2002B14BF01230023DBB25F
:1040CC00002B7FF46DAF002318461037BD4680BD22
:1040DC0080B485B000AF78600023FB60134B1B6885
:1040EC00DB08134AA2FB03231A0A13469B00134452
:1040FC00FB60FB68013BFB60FB68002B07D17B6816
:10410C001B6C43F020027B681A64012308E07B6877
:10411C001B681B6803F40073B3F5007FE9D0002320
:10412C0018461437BD4680BC704700BF0400002001
:10413C0089B5F81480B584B000AFF860B9607A60C6
:10414C0049E0FB681B685B6903F01003102B19D165
:10415C00FB681B686FF010025A61FB6800221A633F
:10416C00FB68202283F83D20FB68002283F83E2068
:10417C00FB681A6CFB681A64FB68002283F83C200D
:10418C00012330E0FDF78AF902467B68D31ABA683E
:10419C009A4202D3BB68002B1DD1FB681B685B697C
:1041AC0003F04003402B16D0FB6800221A63FB6817
:1041BC00202283F83D20FB68002283F83E20FB6818
:1041CC001B6C43F02002FB681A64FB68002283F826
:1041DC003C20012307E0FB681B685B6903F040038C
:1041EC00402BAED1002318461037BD4680BD80B49D
:1041FC0083B000AF78607B68DB6AB3F52A0F03D11C
:10420C007B680122DA6207E07B68DB6AB3F12A4F34
:10421C0002D17B680822DA6200BF0C37BD4680BC35
:10422C007047000080B586B000AF78607B68002BCB
:10423C0001D1012372E27B681B6803F00103002BA0
:10424C0000F08780924B5B6803F00C03042B0CD0BE
:10425C008F4B5B6803F00C03082B12D18C4B5B6803
:10426C0003F48033B3F5803F0BD1894B1B6803F407
:10427C000033002B6CD07B685B68002B68D101236A
:10428C004CE27B685B68B3F5803F06D1804B1B68C2
:10429C007F4A43F4803313602EE07B685B68002B0D
:1042AC000CD17B4B1B687A4A23F480331360784B18
:1042BC001B68774A23F4802313601DE07B685B68DE
:1042CC00B3F5A02F0CD1724B1B68714A43F48023B9
:1042DC0013606F4B1B686E4A43F4803313600BE022
:1042EC006B4B1B686A4A23F480331360684B1B6862
:1042FC00674A23F4802313607B685B68002B13D020
:10430C00FDF7CCF8386108E0FDF7C8F802463B69C8
:10431C00D31A642B01D9032300E25D4B1B6803F411
:10432C000033002BF0D014E0FDF7B8F8386108E04A
:10433C00FDF7B4F802463B69D31A642B01D9032369
:10434C00ECE1534B1B6803F40033002BF0D100E07D
:10435C0000BF7B681B6803F00203002B63D04C4B3F
:10436C005B6803F00C03002B0BD0494B5B6803F02C
:10437C000C03082B1CD1464B5B6803F48033002BD9
:10438C0016D1434B1B6803F00203002B05D07B684E
:10439C001B69012B01D00123C0E13D4B1B6823F0AD
:1043AC00F8027B685B69DB00394913430B603AE028
:1043BC007B681B69002B20D0364B01221A60FDF75D
:1043CC006DF8386108E0FDF769F802463B69D31ACD
:1043DC00022B01D90323A1E12D4B1B6803F002032F
:1043EC00002BF0D02A4B1B6823F0F8027B685B692A
:1043FC00DB00274913430B6015E0264B00221A60A3
:10440C00FDF74CF8386108E0FDF748F802463B69C7
:10441C00D31A022B01D9032380E11D4B1B6803F037
:10442C000203002BF0D17B681B6803F00803002B00
:10443C003AD07B689B69002B19D0174B01221A606C
:10444C00FDF72CF8386108E0FDF728F802463B69C7
:10445C00D31A022B01D9032360E10D4B5B6A03F0E5
:10446C000203002BF0D0012000F0CEFA1CE00A4B26
:10447C0000221A60FDF712F838610FE0FDF70EF814
:10448C0002463B69D31A022B08D9032346E100BF2D
:10449C00001002400000424280044242924B5B6A90
:1044AC0003F00203002BE9D17B681B6803F00403C3
:1044BC00002B00F0A6800023FB758B4BDB6903F00F
:1044CC008053002B0DD1884BDB69874A43F0805316
:1044DC00D361854BDB6903F08053BB60BB68012360
:1044EC00FB75824B1B6803F48073002B18D17F4B38
:1044FC001B687E4A43F480731360FCF7CFFF38616E
:10450C0008E0FCF7CBFF02463B69D31A642B01D9B8
:10451C00032303E1754B1B6803F48073002BF0D06D
:10452C007B68DB68012B06D16F4B1B6A6E4A43F02C
:10453C00010313622DE07B68DB68002B0CD16A4B06
:10454C001B6A694A23F001031362674B1B6A664AB4
:10455C0023F0040313621CE07B68DB68052B0CD191
:10456C00614B1B6A604A43F0040313625E4B1B6A87
:10457C005D4A43F0010313620BE05B4B1B6A5A4A22
:10458C0023F001031362584B1B6A574A23F00403B0
:10459C0013627B68DB68002B15D0FCF77FFF38615A
:1045AC000AE0FCF77BFF02463B69D31A41F28832E2
:1045BC00934201D90323B1E04B4B1B6A03F0020376
:1045CC00002BEED014E0FCF769FF38610AE0FCF731
:1045DC0065FF02463B69D31A41F28832934201D9F6
:1045EC0003239BE0404B1B6A03F00203002BEED12C
:1045FC00FB7D012B05D13C4BDB693B4A23F08053FF
:10460C00D3617B68DB69002B00F08780364B5B68DD
:10461C0003F00C03082B61D07B68DB69022B46D1BD
:10462C00334B00221A60FCF739FF386108E0FCF7C5
:10463C0035FF02463B69D31A022B01D903236DE0E7
:10464C00294B1B6803F00073002BF0D17B681B6AAD
:10465C00B3F5803F08D1244B5B6823F400327B68B0
:10466C009B68214913434B601F4B5B6823F4741206
:10467C007B68196A7B685B6A0B431B4913434B606D
:10468C001B4B01221A60FCF709FF386108E0FCF7AC
:10469C0005FF02463B69D31A022B01D903233DE0E7
:1046AC00114B1B6803F00073002BF0D035E0104B5E
:1046BC0000221A60FCF7F2FE386108E0FCF7EEFE0F
:1046CC0002463B69D31A022B01D9032326E0064B81
:1046DC001B6803F00073002BF0D11EE07B68DB69D4
:1046EC00012B07D1012319E000100240007000409B
:1046FC00600042420B4B5B68FB60FB6803F480324A
:10470C007B681B6A9A4206D1FB6803F470127B68C3
:10471C005B6A9A4201D0012300E000231846183747
:10472C00BD4680BD0010024080B584B000AF7860FB
:10473C0039607B68002B01D10123D0E06A4B1B68E8
:10474C0003F007033A689A4210D9674B1B6823F0B1
:10475C00070265493B6813430B60634B1B6803F00E
:10476C0007033A689A4201D00123B8E07B681B68C2
:10477C0003F00203002B20D07B681B6803F00403BA
:10478C00002B05D0594B5B68584A43F4E0635360E7
:10479C007B681B6803F00803002B05D0534B5B6848
:1047AC00524A43F460535360504B5B6823F0F00261
:1047BC007B689B684D4913434B607B681B6803F017
:1047CC000103002B40D07B685B68012B07D1474B62
:1047DC001B6803F40033002B15D101237FE07B68A9
:1047EC005B68022B07D1414B1B6803F00073002B55
:1047FC0009D1012373E03D4B1B6803F00203002B2E
:10480C0001D101236BE0394B5B6823F003027B6819
:10481C005B68364913434B60FCF740FEF8600AE0D6
:10482C00FCF73CFE0246FB68D31A41F288329342F5
:10483C0001D9032353E02D4B5B6803F00C027B681A
:10484C005B689B009A42EBD1274B1B6803F0070374
:10485C003A689A4210D2244B1B6823F00702224973
:10486C003B6813430B60204B1B6803F007033A684B
:10487C009A4201D0012332E07B681B6803F00403E9
:10488C00002B08D0194B5B6823F4E0627B68DB6873
:10489C00164913434B607B681B6803F00803002B1D
:1048AC0009D0124B5B6823F460527B681B69DB00F8
:1048BC000E4913434B6000F021F802460B4B5B682A
:1048CC001B0903F00F030A49CB5C22FA03F3094AD4
:1048DC001360094B1B681846FCF79EFD0023184615
:1048EC001037BD4680BD00BF0020024000100240C2
:1048FC00EC700008040000200800002080B487B091
:10490C0000AF0023FB600023BB6000237B6100230E
:10491C007B6000233B611E4B5B68FB60FB6803F014
:10492C000C03042B02D0082B03D027E0194B3B615E
:10493C0027E0FB689B0C03F00F03174AD35C7B60EA
:10494C00FB6803F48033002B10D0114B5B685B0CBD
:10495C0003F00103114AD35CBB607B680D4A03FB77
:10496C0002F2BB68B2FBF3F37B6104E07B680C4A98
:10497C0002FB03F37B617B693B6102E0054B3B610E
:10498C0000BF3B6918461C37BD4680BC704700BF52
:10499C000010024000127A00047100081471000823
:1049AC0000093D0080B400AF024B1B681846BD46A1
:1049BC0080BC70470400002080B500AFFFF7F2FF09
:1049CC000246054B5B681B0A03F007030349CB5CEB
:1049DC0022FA03F3184680BD00100240FC70000858
:1049EC0080B500AFFFF7DEFF0246054B5B68DB0AC4
:1049FC0003F007030349CB5C22FA03F3184680BD8E
:104A0C0000100240FC70000880B485B000AF7860E4
:104A1C000A4B1B680A4AA2FB03235B0A7A6802FB57
:104A2C0003F3FB6000BFFB685A1EFA60002BF9D140
:104A3C0000BF00BF1437BD4680BC70470400002087
:104A4C00D34D621080B582B000AF78607B68002BCC
:104A5C0001D1012376E07B685B6A002B08D17B686F
:104A6C005B68B3F5827F09D07B680022DA6105E0D0
:104A7C007B6800221A617B6800225A617B680022E5
:104A8C009A627B6893F85130DBB2002B06D17B68BD
:104A9C00002283F850207868FCF718FA7B68022211
:104AAC0083F851207B681B681A687B681B6822F0AE
:104ABC0040021A607B685B6803F482727B689B68B7
:104ACC0003F404431A437B68DB6803F400631A4362
:104ADC007B681B6903F002031A437B685B6903F074
:104AEC0001031A437B689B6903F400731A437B68C8
:104AFC00DB6903F038031A437B681B6A03F08003FD
:104B0C0042EA03017B689B6A03F400527B681B68D2
:104B1C000A431A607B689B691A0C7B681B6802F05D
:104B2C0004025A607B681B68DA697B681B6822F494
:104B3C000062DA617B6800225A657B68012283F887
:104B4C005120002318460837BD4680BD80B582B081
:104B5C0000AF78607B68002B01D101231AE07B68E1
:104B6C00022283F851207B681B681A687B681B68DB
:104B7C0022F040021A607868FCF73EFA7B6800224B
:104B8C005A657B68002283F851207B68002283F8E9
:104B9C005020002318460837BD4680BD80B58AB02A
:104BAC0000AFF860B9607A607B8001237B62FCF710
:104BBC0075FC3862FB6893F85130FB77FB685B68D7
:104BCC00BB617B88FB82FB7F012B0CD0BB69B3F5EF
:104BDC00827F06D1FB689B68002B02D1FB7F042BE4
:104BEC0001D002237FE1BB68002B05D07B68002B32
:104BFC0002D07B88002B01D1012374E1FB6893F870
:104C0C005030012B01D102236DE1FB68012283F8A6
:104C1C005020FB6893F85130DBB2042B03D0FB68B7
:104C2C00052283F85120FB6800225A65FB687A68DC
:104C3C009A63FB687A88DA87FB687A889A87FB68BC
:104C4C00BA681A63FB687A88DA86FB687A889A866F
:104C5C00FB6800221A64FB6800225A64FB681B681C
:104C6C001B6803F04003402B07D0FB681B681A68D5
:104C7C00FB681B6842F040021A60FB68DB68B3F506
:104C8C00006F7ED1FB685B68002B02D0FB8A012B86
:104C9C006CD1FB681B6B1A88FB681B68DA60FB68BD
:104CAC001B6B9A1CFB681A63FB68DB8E9BB2013B87
:104CBC009AB2FB68DA8659E0FB681B689B6803F0C4
:104CCC000203022B1BD1FB68DB8E9BB2002B16D090
:104CDC007B6A012B13D1FB681B6B1A88FB681B6862
:104CEC00DA60FB681B6B9A1CFB681A63FB68DB8E33
:104CFC009BB2013B9AB2FB68DA8600237B62FB68AD
:104D0C001B689B6803F00103012B19D1FB68DB8F37
:104D1C009BB2002B14D0FB681B68DA68FB689B6B9A
:104D2C0092B21A80FB689B6B9A1CFB689A63FB68B7
:104D3C00DB8F9BB2013B9AB2FB68DA8701237B6263
:104D4C00FCF7ACFB02463B6AD31A3A6B9A420DD87D
:104D5C003B6BB3F1FF3F09D0FB68012283F8512074
:104D6C00FB68002283F850200323BCE0FB68DB8E39
:104D7C009BB2002BA0D1FB68DB8F9BB2002B9BD18D
:104D8C0082E0FB685B68002B02D0FB8A012B71D19F
:104D9C00FB681A6BFB681B680C3312781A70FB6883
:104DAC001B6B5A1CFB681A63FB68DB8E9BB2013BC6
:104DBC009AB2FB68DA865DE0FB681B689B6803F0BF
:104DCC000203022B1CD1FB68DB8E9BB2002B17D08D
:104DDC007B6A012B14D1FB681A6BFB681B680C33C4
:104DEC0012781A70FB681B6B5A1CFB681A63FB6801
:104DFC00DB8E9BB2013B9AB2FB68DA8600237B62A6
:104E0C00FB681B689B6803F00103012B19D1FB683D
:104E1C00DB8F9BB2002B14D0FB681B68DA68FB6835
:104E2C009B6BD2B21A70FB689B6B5A1CFB689A6323
:104E3C00FB68DB8F9BB2013B9AB2FB68DA870123DC
:104E4C007B62FCF72BFB02463B6AD31A3A6B9A4205
:104E5C0003D83B6BB3F1FF3F02D13B6B002B09D165
:104E6C00FB68012283F85120FB68002283F8502054
:104E7C00032338E0FB68DB8E9BB2002B9CD1FB68D4
:104E8C00DB8F9BB2002B97D13A6A396BF86800F034
:104E9C0047FC0346002B08D0FB6820225A65FB68B0
:104EAC00002283F8502001231DE0FB689B68002B37
:104EBC000AD100233B61FB681B68DB683B61FB6824
:104ECC001B689B683B613B69FB68012283F851209E
:104EDC00FB68002283F85020FB685B6D002B01D02F
:104EEC00012300E0002318462837BD4680BD000092
:104EFC0080B584B000AFF860B9601346FB80FB68E6
:104F0C0093F85130DBB2012B01D002237FE0FB6818
:104F1C009B68002B10D1FB685B68B3F5827F0BD1CB
:104F2C00FB68042283F85120FB88BA68B968F868DA
:104F3C0000F076F803466AE0BB68002B02D0FB88D1
:104F4C00002B01D1012362E0FB6893F85030012B58
:104F5C0001D102235BE0FB68012283F85020FB683F
:104F6C00042283F85120FB6800225A65FB68BA685A
:104F7C009A63FB68FA889A87FB68FA88DA87FB6879
:104F8C0000221A63FB6800229A86FB680022DA86EC
:104F9C00FB6800225A64FB68DB68002B03D0FB68BB
:104FAC001D4A1A6402E0FB681C4A1A64FB689B6881
:104FBC00B3F5004F0FD1FB681B681A68FB681B68C0
:104FCC0022F040021A60FB681B681A68FB681B68B9
:104FDC0022F480421A60FB681B681B6803F04003D4
:104FEC00402B07D0FB681B681A68FB681B6842F0F3
:104FFC0040021A60FB68002283F85020FB681B6893
:10500C005A68FB681B6842F060025A60002318461D
:10501C001037BD4680BD00BF33550008E954000869
:10502C0080B487B000AFF860B9607A607B80FB68B1
:10503C0093F85130FB75FB685B683B61FB7D012B82
:10504C000CD03B69B3F5827F06D1FB689B68002BC3
:10505C0002D1FB7D042B01D0022361E0BB68002B45
:10506C0005D07B68002B02D07B88002B01D101235B
:10507C0056E0FB6893F85030012B01D102234FE02E
:10508C00FB68012283F85020FB6893F85130DBB2A7
:10509C00042B03D0FB68052283F85120FB68002207
:1050AC005A65FB68BA681A63FB687A889A86FB684B
:1050BC007A88DA86FB687A689A63FB687A889A87BA
:1050CC00FB687A88DA87FB68DB68002B06D0FB6804
:1050DC00164A1A64FB68164A5A6405E0FB68154ABE
:1050EC001A64FB68144A5A64FB681B681B6803F05B
:1050FC004003402B07D0FB681B681A68FB681B68D1
:10510C0042F040021A60FB68002283F85020FB68D2
:10511C001B685A68FB681B6842F0E0025A60002367
:10512C0018461C37BD4680BC704700BF2B54000886
:10513C008B54000867530008CB53000880B588B027
:10514C0000AF78607B681B685B68FB617B681B68E1
:10515C009B68BB61BB6903F04003002B0ED1BB699C
:10516C0003F00103002B09D0FB6903F04003002B73
:10517C0004D07B681B6C78689847B7E0BB6903F078
:10518C000203002B09D0FB6903F08003002B04D031
:10519C007B685B6C78689847A8E0BB6903F02003D8
:1051AC00002B05D1BB6903F04003002B00F09E805F
:1051BC00FB6903F02003002B00F09880BB6903F01F
:1051CC004003002B23D07B6893F85130DBB2032BC8
:1051DC0011D07B685B6D43F004027B685A65002339
:1051EC007B617B681B68DB687B617B681B689B68E9
:1051FC007B617B690BE000233B617B681B68DB6890
:10520C003B617B681B689B683B613B696EE0BB69DB
:10521C0003F02003002B14D07B685B6D43F001027C
:10522C007B685A650023FB607B681B689B68FB608E
:10523C007B681B681A687B681B6822F040021A6046
:10524C00FB687B685B6D002B4FD07B681B685A68D2
:10525C007B681B6822F0E0025A607B68012283F8AD
:10526C005120FB6903F00203002B04D1FB6903F00E
:10527C000103002B34D07B681B685A687B681B6861
:10528C0022F003025A607B68DB6C002B11D07B6828
:10529C00DB6C184A5A637B68DB6C1846FCF782FAA5
:1052AC000346002B05D07B685B6D43F040027B68A6
:1052BC005A657B689B6C002B16D07B689B6C0D4AE7
:1052CC005A637B689B6C1846FCF76CFA0346002B00
:1052DC000AD07B685B6D43F040027B685A6503E043
:1052EC00786800F012F800E000BF00BF2037BD4620
:1052FC0080BD00BF3F53000880B483B000AF78601E
:10530C0000BF0C37BD4680BC704780B483B000AF83
:10531C00786000BF0C37BD4680BC704780B483B04A
:10532C0000AF78607B685B6D18460C37BD4680BC5F
:10533C00704780B584B000AF78607B685B6AFB60B7
:10534C00FB680022DA87FB680022DA86F868FFF730
:10535C00DCFF00BF1037BD4680BD80B582B000AF0A
:10536C0078607B681B6803F10C027B689B6B12787E
:10537C00D2B21A707B689B6B5A1C7B689A637B68F1
:10538C00DB8F9BB2013B9AB27B68DA877B68DB8F41
:10539C009BB2002B0FD17B681B685A687B681B681B
:1053AC0022F060025A607B68DB8E9BB2002B02D12C
:1053BC00786800F0E7F900BF0837BD4680BD80B5BE
:1053CC0082B000AF78607B681A6B7B681B680C330B
:1053DC0012781A707B681B6B5A1C7B681A637B688B
:1053EC00DB8E9BB2013B9AB27B68DA867B68DB8EE4
:1053FC009BB2002B0FD17B681B685A687B681B68BB
:10540C0022F080025A607B68DB8F9BB2002B02D1AA
:10541C00786800F0B7F900BF0837BD4680BD80B58D
:10542C0082B000AF78607B681B68DA687B689B6B26
:10543C0092B21A807B689B6B9A1C7B689A637B6820
:10544C00DB8F9BB2013B9AB27B68DA877B68DB8F80
:10545C009BB2002B0FD17B681B685A687B681B685A
:10546C0022F040025A607B68DB8E9BB2002B02D18B
:10547C00786800F087F900BF0837BD4680BD80B55D
:10548C0082B000AF78607B681B6B1A887B681B68E6
:10549C00DA607B681B6B9A1C7B681A637B68DB8EFB
:1054AC009BB2013B9AB27B68DA867B68DB8E9BB23F
:1054BC00002B0FD17B681B685A687B681B6822F035
:1054CC0080025A607B68DB8F9BB2002B02D178681C
:1054DC0000F058F900BF0837BD4680BD80B582B0DA
:1054EC0000AF78607B681B6803F10C027B689B6BD8
:1054FC001278D2B21A707B689B6B5A1C7B689A63C9
:10550C007B68DB8F9BB2013B9AB27B68DA877B6846
:10551C00DB8F9BB2002B02D1786800F0A7F900BF9B
:10552C000837BD4680BD80B582B000AF78607B681F
:10553C001B68DA687B689B6B92B21A807B689B6BEA
:10554C009A1C7B689A637B68DB8F9BB2013B9AB297
:10555C007B68DA877B68DB8F9BB2002B02D1786883
:10556C0000F084F900BF0837BD4680BD80B588B017
:10557C0000AFF860B9603B601346FB71FBF78EFF20
:10558C000246BB6A9B1A3A681344FB61FBF786FF21
:10559C00B861394B1B685B011B0DFA6902FB03F305
:1055AC007B6154E03B68B3F1FF3F50D0FBF776FFD3
:1055BC000246BB69D31AFA699A4202D9FB69002BDD
:1055CC003DD1FB681B685A68FB681B6822F0E0023F
:1055DC005A60FB685B68B3F5827F11D1FB689B68EE
:1055EC00B3F5004F04D0FB689B68B3F5806F07D10F
:1055FC00FB681B681A68FB681B6822F040021A6083
:10560C00FB689B6AB3F5005F0FD1FB681B681A68D7
:10561C00FB681B6822F400521A60FB681B681A684E
:10562C00FB681B6842F400521A60FB68012283F885
:10563C005120FB68002283F85020032317E07B697C
:10564C00002B01D10023FB617B69013B7B61FB6873
:10565C001B689A68BB681340BA689A420CBF012356
:10566C000023DBB21A46FB799A429BD100231846E1
:10567C002037BD4680BD00BF0400002080B586B039
:10568C0002AFF860B9607A60FB685B68B3F5827F43
:10569C0011D1FB689B68B3F5004F04D0FB689B6885
:1056AC00B3F5806F07D1FB681B681A68FB681B6831
:1056BC0022F040021A60FB685B68B3F5827F17D159
:1056CC00FB689B68B3F5806F12D17B680093BB6855
:1056DC0000220121F868FFF749FF0346002B1AD07E
:1056EC00FB685B6D43F02002FB685A65032313E0F3
:1056FC007B680093BB6800228021F868FFF736FFB7
:10570C000346002B07D0FB685B6D43F02002FB685F
:10571C005A65032300E0002318461037BD4680BDB0
:10572C0080B586B002AFF860B9607A607B68009390
:10573C00BB6801220221F868FFF718FF0346002B13
:10574C0007D0FB685B6D43F02002FB685A650323AE
:10575C0013E07B680093BB6800228021F868FFF798
:10576C0005FF0346002B07D0FB685B6D43F020025E
:10577C00FB685A65032300E0002318461037BD462A
:10578C0080BD000080B586B000AF7860354B1B68DB
:10579C00354AA2FB03235B0A642202FB03F33B6141
:1057AC00FBF77CFE78617B681B685A687B681B681A
:1057BC0022F020025A603B69002B06D17B685B6D9E
:1057CC0043F020027B685A6509E03B69013B3B6171
:1057DC007B681B689B6803F00203002BEBD07A6993
:1057EC0064217868FFF79CFF0346002B05D07B688B
:1057FC005B6D43F020027B685A657B689B68002BCD
:10580C000AD10023FB607B681B68DB68FB607B684C
:10581C001B689B68FB60FB687B685B6D002B15D17C
:10582C007B6893F85130DBB2042B07D17B680122E3
:10583C0083F851207868FAF7C1FF0EE07B680122EB
:10584C0083F851207868FFF757FD06E07B6801224A
:10585C0083F851207868FFF758FD00BF1837BD4614
:10586C0080BD00BF04000020F119760580B584B01E
:10587C0000AF78607B681B685A687B681B6822F0F5
:10588C0060025A60FBF70AFE03461A4664217868E8
:10589C00FFF7F4FE0346002B05D07B685B6D43F0ED
:1058AC0020027B685A657B689B68002B0AD1002319
:1058BC00FB607B681B68DB68FB607B681B689B6814
:1058CC00FB60FB687B68012283F851207B685B6D71
:1058DC00002B03D17868FAF771FF02E07868FFF7C4
:1058EC0014FD00BF1037BD4680BD80B582B000AF3F
:1058FC0078607B68002B01D1012341E07B6893F831
:10590C003D30DBB2002B06D17B68002283F83C20B3
:10591C007868FBF7A9FB7B68022283F83D207B6843
:10592C001A687B6804331946104600F05BFA7B68F2
:10593C00012283F846207B68012283F83E207B6895
:10594C00012283F83F207B68012283F840207B688A
:10595C00012283F841207B68012283F842207B6876
:10596C00012283F843207B68012283F844207B6862
:10597C00012283F845207B68012283F83D20002317
:10598C0018460837BD4680BD80B485B000AF78603E
:10599C007B6893F83D30DBB2012B01D001233AE058
:1059AC007B68022283F83D207B681B68DA687B6881
:1059BC001B6842F00102DA607B681B68184A93424C
:1059CC000ED07B681B68B3F1804F09D07B681B68D5
:1059DC00144A934204D07B681B68134A934211D13A
:1059EC007B681B689B6803F00703FB60FB68062B56
:1059FC0010D07B681B681A687B681B6842F0010238
:105A0C001A6007E07B681B681A687B681B6842F0A9
:105A1C0001021A60002318461437BD4680BC70473B
:105A2C00002C0140000400400008004080B584B008
:105A3C0000AF78607B681B68DB68FB607B681B6869
:105A4C001B69BB60BB6803F00203002B20D0FB6812
:105A5C0003F00203002B1BD07B681B686FF0020263
:105A6C001A617B6801221A777B681B689B6903F0BB
:105A7C000303002B03D0786800F098F905E07868F0
:105A8C0000F08BF9786800F09AF97B6800221A779D
:105A9C00BB6803F00403002B20D0FB6803F0040365
:105AAC00002B1BD07B681B686FF004021A617B68AB
:105ABC0002221A777B681B689B6903F44073002BE6
:105ACC0003D0786800F072F905E0786800F065F9A9
